:100000000C945D000C9485000C9485000C94850084
:100010000C9485000C9485000C9485000C9485004C
:100020000C9485000C9485000C9485000C9485003C
:100030000C9485000C9485000C9485000C9485002C
:100040000C9447030C9485000C9415030C94EF0258
:100050000C9485000C9485000C9485000C9485000C
:100060000C9485000C9485000000000024002700FB
:100070002A0000000000250028002B0004040404CE
:100080000404040402020202020203030303030342
:10009000010204081020408001020408102001021F
:1000A00004081020000000080002010000030407FB
:1000B0000000000000000000910311241FBECFEFDC
:1000C000D8E0DEBFCDBF11E0A0E0B1E0EEE8F0E1A6
:1000D00002C005900D92A831B107D9F722E0A8E13E
:1000E000B1E001C01D92AD33B207E1F710E0CDE5FC
:1000F000D0E004C02197FE010E940D07CC35D10746
:10010000C9F70E94FF040C9445080C940000CF929C
:10011000DF92EF92FF920F931F93CF93DF936C01C7
:100120007A018B01C0E0D0E0CE15DF0589F0D8015F
:100130006D918D01D601ED91FC910190F081E02D42
:10014000C6010995892B11F47E0102C02196ECCFDE
:10015000C701DF91CF911F910F91FF90EF90DF903A
:10016000CF900895089580E090E00895FC01538DAC
:10017000448D252F30E0842F90E0821B930B541781
:1001800010F0CF96089501970895FC01918D828D0E
:10019000981761F0828DDF01A80FB11D5D968C91DB
:1001A000928D9F5F9F73928F90E008958FEF9FEFE6
:1001B0000895FC01918D828D981731F0828DE80FA2
:1001C000F11D858D90E008958FEF9FEF0895FC015C
:1001D000918D228D892F90E0805C9F4F821B910929
:1001E0008F73992708958DE191E00E94E70021E047
:1001F000892B09F420E0822F0895FC01848DDF0112
:10020000A80FB11DA35ABF4F2C91848D90E0019689
:100210008F739927848FA689B7892C93A089B18978
:100220008C9180648C93938D848D981306C0028882
:10023000F389E02D80818F7D80830895EF92FF9276
:100240000F931F93CF93DF93EC0181E0888F9B8DF9
:100250008C8D981305C0E889F989808185FD24C0BB
:10026000F62E0B8D10E00F5F1F4F0F731127E02E3E
:100270008C8DE8120CC00FB607FCFACFE889F9891B
:10028000808185FFF5CFCE010E94FD00F1CF8B8DDF
:10029000FE01E80FF11DE35AFF4FF0820B8FEA8950
:1002A000FB898081806207C0EE89FF896083E889CD
:1002B000F98980818064808381E090E0DF91CF9133
:1002C0001F910F91FF90EF900895CF93DF93EC0172
:1002D000888D8823C9F0EA89FB89808185FD05C066
:1002E000A889B9898C9186FD0FC00FB607FCF5CFA0
:1002F000808185FFF2CFA889B9898C9185FFEDCFE8
:10030000CE010E94FD00E7CFDF91CF91089580E0FC
:1003100090E0892B29F00E94F30081110C940000D9
:10032000089590E0FC01EC55FF4F3491FC01E0573B
:10033000FF4F2491FC01E458FF4FE491EE2309F4B0
:100340003BC0332339F1333091F038F43130A9F028
:10035000323001F584B58F7D12C0373091F03830DE
:10036000A1F03430B9F4809180008F7D03C080917A
:1003700080008F77809380000DC084B58F7784BD17
:1003800009C08091B0008F7703C08091B0008F7D4D
:100390008093B000F0E0EE0FFF1FEE58FF4FA591E5
:1003A000B4918FB7F894EC91611103C020952E237E
:1003B00001C02E2B2C938FBF0895CF93DF9390E035
:1003C000FC01E057FF4F2491FC01E458FF4F84915A
:1003D000882361F190E0880F991FFC01E859FF4FD5
:1003E000C591D491FC01EE58FF4FA591B4916111D4
:1003F00009C09FB7F8948881209582238883EC9167
:100400002E230BC0623061F49FB7F8943881822F9D
:10041000809583238883EC912E2B2C939FBF06C05D
:100420008FB7F894E8812E2B28838FBFDF91CF916F
:1004300008958E3008F08E508770806480937C0021
:1004400080917A00806480937A0080917A0086FDA2
:10045000FCCF809178002091790090E0922B089554
:100460002F923F924F925F926F927F928F929F92C4
:10047000AF92BF92CF92DF92EF92FF920F931F93B2
:10048000CF93DF9300D0CDB7DEB78C0149832A83A9
:10049000660F771FF801EA5AFF4FE080F180EE0CFB
:1004A000FF1CF801CF01801B910B8E159F0514F4E2
:1004B0001192F8CF8981F801E60FF71F81838A81B5
:1004C0008083580184E5A80EB11C60E0F5018081AD
:1004D0000E949101E00EF11E4801F2E58F0E911C81
:1004E000380180E5680E711CC701801B910B18163E
:1004F000190624F5F701C2907F01F4013080F30161
:10050000208087E0482E512CD12CB601042C02C04B
:10051000759567950A94E2F761707727822D0E949E
:10052000910161E0832D0E94910160E0832D0E9482
:100530009101F1E04F1A510840F7D6CF61E0F50183
:1005400080810F900F90DF91CF911F910F91FF90BD
:10055000EF90DF90CF90BF90AF909F908F907F9063
:100560006F905F904F903F902F900C949101CF929D
:10057000DF92EF92FF920F931F93CF93DF9377FD5C
:1005800023C0FC01EA5AFF4F2081318162177307B3
:10059000DCF4EB017C016B0183E0CC0CDD1C8A9563
:1005A000E1F701E010E0F801EC0DFD1DEE0DFF1D7F
:1005B000178620E0402FBE01C7010E9430020F5F66
:1005C0001F4F0930110579F7DF91CF911F910F91DE
:1005D000FF90EF90DF90CF9008950E9440081F9207
:1005E0000F920FB60F9211242F933F934F935F9367
:1005F0006F937F938F939F93AF93BF93EF93FF93EB
:100600008DE191E00E94FD00FF91EF91BF91AF91CC
:100610009F918F917F916F915F914F913F912F911A
:100620000F900FBE0F901F9018951F920F920FB64C
:100630000F9211242F938F939F93EF93FF93E09149
:100640002D01F0912E018081E0913301F091340170
:1006500082FD12C09081809136018F5F8F7320914F
:100660003701821751F0E0913601F0E0E35EFE4F72
:10067000958F8093360101C08081FF91EF919F910A
:100680008F912F910F900FBE0F901F9018951F9272
:100690000F920FB60F9211242F933F938F939F9336
:1006A000AF93BF938091BA019091BB01A091BC011F
:1006B000B091BD0130911C0123E0230F2D3720F4B0
:1006C0000196A11DB11D05C026E8230F0296A11DAC
:1006D000B11D20931C018093BA019093BB01A0939C
:1006E000BC01B093BD018091180190911901A091B6
:1006F0001A01B0911B010196A11DB11D8093180133
:1007000090931901A0931A01B0931B01BF91AF916F
:100710009F918F913F912F910F900FBE0F901F903F
:100720001895CF93DF931092200110921F0188EE4D
:1007300093E0A0E0B0E08093210190932201A09388
:100740002301B09324018AE091E090931E018093ED
:100750001D0185EC90E090932A018093290184EC9F
:1007600090E090932C0180932B0180EC90E090938B
:100770002E0180932D0181EC90E0909330018093C5
:100780002F0182EC90E0909332018093310186EC4E
:1007900090E09093340180933301109236011092CF
:1007A000370110923801109239011092C101109254
:1007B000C0011092C3011092C20184E090E00E9437
:1007C000130724E030E0FC0131832083338322834C
:1007D0009093C5018093C401CCE0D0E0D09319027E
:1007E000C09318028BE090E090931B0280931A0252
:1007F0008AE090E090931D0280931C0288E090E0D4
:1008000090931F0280931E0261E08CE00E94DD0144
:1008100061E080911A020E94DD0161E080911C027A
:100820000E94DD0161E080911C020E949101D09341
:100830001902C0931802E8EDF1E0119282E0E8316C
:10084000F807D9F7C0E0D0E080911E0290911F0216
:10085000C817D907ACF520E04FE0BE0188EC91E065
:100860000E943002D7FD0EC080911E0290911F029F
:10087000C817D9073CF427E04BE0BE0188EC91E0B3
:100880000E94300220E049E0BE0188EC91E00E9425
:100890003002BE0188EC91E00E94B702D7FD0EC085
:1008A00080911E0290911F02C817D9073CF420E0E6
:1008B0004CE0BE0188EC91E00E9430022196C4CF4A
:1008C0001816190644F421E04CE060E070E088EC72
:1008D00091E00E94300280911E0290911F02181632
:1008E000190644F428E04AE060E070E088EC91E00A
:1008F0000E94300260E070E088EC91E00E94B70254
:10090000C0ECD1E0D0932102C093200210922E02BD
:1009100010922F0210923002109231021092320285
:1009200010923302109234021092350281E090E06E
:100930000E94130790933702809336022FB7F894E2
:100940006091BA017091BB018091BC019091BD0191
:100950002FBF0E9456066093220270932302809359
:1009600024029093250260932602709327028093BD
:1009700028029093290210922A0210922B021092C0
:100980002C0210922D02D093BF01C093BE01E091C2
:100990002D01F0912E0182E08083E0912901F091F8
:1009A0002A011082E0912B01F0912C018FEC8083C1
:1009B00010923501E0913101F091320186E080839F
:1009C000E0912F01F0913001808180618083E0917E
:1009D0002F01F0913001808188608083E0912F01A8
:1009E000F0913001808180688083E0912F01F09147
:1009F000300180818F7D8083DF91CF91089578943D
:100A000084B5826084BD84B5816084BD85B5826013
:100A100085BD85B5816085BD80916E0081608093C4
:100A20006E0010928100809181008260809381002D
:100A3000809181008160809381008091800081603D
:100A4000809380008091B10084608093B100809198
:100A5000B00081608093B00080917A0084608093C0
:100A60007A0080917A00826080937A0080917A0087
:100A7000816080937A0080917A00806880937A0008
:100A80001092C1001092380260E082E00E94DD0105
:100A900061E082E00E94910180E090E0DC017D0154
:100AA000EC0100E810E002C015950795AA95E2F761
:100AB00080539E4F6C01BC2EB39481E0809338022A
:100AC00080913802811182C02FB7F8946091BA01E9
:100AD0007091BB018091BC019091BD012FBF0E941C
:100AE00056069B01AC01609322027093230280930F
:100AF0002402909325026091260270912702809132
:100B00002802909129020E94E90560932A027093BD
:100B10002B0280932C0290932D022091320230916F
:100B2000330240913402509135020E94E4061816B7
:100B300054F580E00E9419024C0181E00E941902E4
:100B4000E0912002F09121020480F581E02D2081C6
:100B50003181820E931E9182808222813381820FA5
:100B6000931F938382838091220290912302A0910C
:100B70002402B09125028093260290932702A0932D
:100B80002802B093290260E070E088EC91E00E94B6
:100B9000B70280911E0290911F02181619060CF0E0
:100BA0008FCFC830D10508F08BCF98E0E916F1045B
:100BB00008F086CFF6012085202B20874B2D60E0A2
:100BC00070E088EC91E00E9430027ACF0E948701A9
:100BD00074CF5058BB27AA270E9401060C94AA067E
:100BE0000E949C0638F00E94A30620F039F49F3F33
:100BF00019F426F40C9499060EF4E095E7FB0C9496
:100C00009306E92F0E94BB0658F3BA1762077307D1
:100C10008407950720F079F4A6F50C94DD060EF410
:100C2000E0950B2EBA2FA02D0B01B90190010C01FC
:100C3000CA01A0011124FF27591B99F0593F50F414
:100C4000503E68F11A16F040A22F232F342F44276C
:100C5000585FF3CF469537952795A795F040539564
:100C6000C9F77EF41F16BA0B620B730B840BBAF034
:100C70009150A1F0FF0FBB1F661F771F881FC2F79F
:100C80000EC0BA0F621F731F841F48F487957795B3
:100C90006795B795F7959E3F08F0B0CF9395880F6D
:100CA00008F09927EE0F979587950895E89409C065
:100CB00097FB3EF490958095709561957F4F8F4F8F
:100CC0009F4F9923A9F0F92F96E9BB279395F695A5
:100CD000879577956795B795F111F8CFFAF4BB0F23
:100CE00011F460FF1BC06F5F7F4F8F4F9F4F16C087
:100CF000882311F096E911C0772321F09EE8872F11
:100D0000762F05C0662371F096E8862F70E060E0CC
:100D10002AF09A95660F771F881FDAF7880F969545
:100D2000879597F9089597F99F6780E870E060E0EC
:100D300008959FEF80EC089500240A941616170674
:100D400018060906089500240A94121613061406BC
:100D500005060895092E0394000C11F4882352F01F
:100D6000BB0F40F4BF2B11F460FF04C06F5F7F4FD7
:100D70008F4F9F4F089557FD9058440F551F59F0BE
:100D80005F3F71F04795880F97FB991F61F09F3F78
:100D900079F087950895121613061406551FF2CFA1
:100DA0004695F1DF08C0161617061806991FF1CFF1
:100DB00086957105610508940895E894BB27662718
:100DC0007727CB0197F908950E94E90608F48FEF81
:100DD0000895990F0008550FAA0BE0E8FEEF1616CC
:100DE0001706E807F907C0F012161306E407F5071F
:100DF00098F0621B730B840B950B39F40A2661F093
:100E0000232B242B252B21F408950A2609F4A14035
:100E1000A6958FEF811D811D0895EE0FFF1F059090
:100E2000F491E02D0994CF93DF938230910510F473
:100E300082E090E0E0913B02F0913C0220E030E063
:100E4000C0E0D0E0309711F1408151814817590737
:100E5000C0F04817590761F482819381209719F0F7
:100E60009B838A832BC090933C0280933B0226C0D5
:100E70002115310519F04217530718F49A01BE01E4
:100E8000DF01EF010280F381E02DDCCF2115310578
:100E900009F1281B390B2430310590F412968D91FD
:100EA0009C9113976115710521F0FB019383828357
:100EB00004C090933C0280933B02FD01329644C0F3
:100EC000FD01E20FF31F81939193225031092D937D
:100ED0003C933AC02091390230913A02232B41F4DD
:100EE000209102013091030130933A02209339029C
:100EF00020910001309101012115310541F42DB7F8
:100F00003EB74091040150910501241B350BE0913F
:100F10003902F0913A02E217F307A0F42E1B3F0BBF
:100F20002817390778F0AC014E5F5F4F241735075B
:100F300048F04E0F5F1F50933A024093390281935D
:100F4000919302C0E0E0F0E0CF01DF91CF910895EE
:100F50000F931F93CF93DF93009709F48CC0FC018C
:100F600032971382128200913B0210913C020115CC
:100F7000110581F420813181820F931F2091390264
:100F800030913A022817390779F5F0933A02E09345
:100F9000390271C0D80140E050E0AE17BF0750F4ED
:100FA00012962D913C911397AD012115310509F150
:100FB000D901F3CF9D01DA013383228360817181EE
:100FC000860F971F8217930769F4EC0128813981F6
:100FD000260F371F2E5F3F4F318320838A819B81ED
:100FE00093838283452B29F4F0933C02E0933B02E8
:100FF00042C01396FC93EE931297ED0149915991DB
:101000009E01240F351FE217F30771F4808191814F
:10101000840F951F029611969C938E9382819381E3
:1010200013969C938E931297E0E0F0E0D80112960D
:101030008D919C911397009719F0F8018C01F6CFD0
:101040008D919C9198012E5F3F4F820F931F2091AD
:10105000390230913A022817390769F4309729F498
:1010600010923C0210923B0202C013821282109333
:101070003A0200933902DF91CF911F910F910895A9
:0E10800081E090E0F8940C944508F894FFCFBE
:10108E0000003D028000000000001E018700B60037
:08109E006501E700C500D9005F
:00000001FF
