:100000000C945D000C9485000C9485000C94850084
:100010000C9485000C9485000C9485000C9485004C
:100020000C9485000C9485000C9485000C9485003C
:100030000C9485000C9485000C9485000C9485002C
:100040000C94A5030C9485000C9473030C944D033D
:100050000C9485000C9485000C9485000C9485000C
:100060000C9485000C9485000000000024002700FB
:100070002A0000000000250028002B0004040404CE
:100080000404040402020202020203030303030342
:10009000010204081020408001020408102001021F
:1000A00004081020000000080002010000030407FB
:1000B0000000000000000000EF0311241FBECFEF7E
:1000C000D8E0DEBFCDBF11E0A0E0B1E0E0EAF4E1AE
:1000D00002C005900D92A831B107D9F722E0A8E13E
:1000E000B1E001C01D92A933B207E1F710E0CDE500
:1000F000D0E004C02197FE010E942209CC35D1072F
:10010000C9F70E944A050C944E0A0C940000CF9245
:10011000DF92EF92FF920F931F93CF93DF936C01C7
:100120007A018B01C0E0D0E0CE15DF0581F0D80167
:100130006D918D01D601ED91FC910190F081E02D42
:10014000C6010995892B11F02196EECF7E01C701DA
:10015000DF91CF911F910F91FF90EF90DF90CF90A3
:100160000895089580E090E00895FC01538D448D3A
:10017000252F30E0842F90E0821B930B541710F052
:10018000CF96089501970895FC01918D828D98175F
:1001900061F0828DDF01A80FB11D5D968C91928D6B
:1001A0009F5F9F73928F90E008958FEF9FEF089568
:1001B000FC01918D828D981731F0828DE80FF11D31
:1001C000858D90E008958FEF9FEF0895FC01918D4C
:1001D000228D892F90E0805C9F4F821B91098F7345
:1001E0009927089581E291E00E94E60021E0892BA1
:1001F00009F420E0822F0895FC01848DDF01A80F0F
:10020000B11DA35ABF4F2C91848D90E001968F733E
:100210009927848FA689B7892C93A089B1898C915D
:10022000837080648C93938D848D981306C00288AC
:10023000F389E02D80818F7D80830895EF92FF9276
:100240000F931F93CF93DF93EC0181E0888F9B8DF9
:100250008C8D981305C0E889F989808185FD26C0B9
:10026000F62E0B8D10E00F5F1F4F0F731127E02E3E
:100270008C8DE8120CC00FB607FCFACFE889F9891B
:10028000808185FFF5CFCE010E94FC00F1CF8B8DE0
:10029000FE01E80FF11DE35AFF4FF0829FB7F8947B
:1002A0000B8FEA89FB89808180620AC09FB7F8942E
:1002B000EE89FF896083E889F98980818370806491
:1002C00080839FBF81E090E0DF91CF911F910F91DC
:1002D000FF90EF900895CF93DF93EC01888D8823F2
:1002E000C9F0EA89FB89808185FD05C0A889B989A3
:1002F0008C9186FD0FC00FB607FCF5CF808185FF7E
:10030000F2CFA889B9898C9185FFEDCFCE010E94EB
:10031000FC00E7CFDF91CF91089580E090E0892B3A
:1003200029F00E94F20081110C940000089590E0E1
:10033000FC01EC55FF4F2491FC01E057FF4F349135
:10034000FC01E458FF4FE491EE2309F43CC0222362
:1003500039F1233091F038F42130A9F0223001F541
:1003600084B58F7D12C0273091F02830A1F0243061
:10037000B9F4809180008F7D03C0809180008F77D9
:10038000809380000DC084B58F7784BD09C08091B3
:10039000B0008F7703C08091B0008F7D8093B00054
:1003A000F0E0EE0FFF1FEE58FF4FA591B4919FB7FD
:1003B000F894611104C08C913095382302C0EC91FF
:1003C0003E2B3C939FBF0895CF93DF9390E0FC01B9
:1003D000E057FF4F2491FC01E458FF4F849188239C
:1003E00061F190E0880F991FFC01E859FF4FC5911A
:1003F000D491FC01EE58FF4FA591B491611109C051
:100400009FB7F8948881209582238883EC912E23CE
:100410000BC0623061F49FB7F8948881322F309519
:1004200083238883EC912E2B2C939FBF06C08FB71C
:10043000F894E8812E2B28838FBFDF91CF91089508
:100440008E3008F08E508770806480937C0080919D
:100450007A00806480937A0080917A0086FDFCCFD8
:10046000809178002091790090E0922B0895CF92AE
:10047000DF92EF92FF920F931F93CF93DF93CDB74D
:10048000DEB7C054D1090FB6F894DEBF0FBECDBFA2
:10049000FE01319620E030E08F012115310519F47D
:1004A00069834A8315C0DC011396ED90FC90149784
:1004B0006701C20ED31E7601B1E0EB1AF108D70135
:1004C0007C91D6015C915F3F09F47FEF7183528389
:1004D0002E5F3F4F329620343105F9F6FC0103833D
:1004E00014830E948302C05CDF4F0FB6F894DEBF16
:1004F0000FBECDBFDF91CF911F910F91FF90EF9075
:10050000DF90CF900895DC011396ED91FC91149744
:1005100060814181693008F060E0493008F040E0D6
:100520000C9437022F923F924F925F926F927F927C
:100530008F929F92AF92BF92CF92DF92EF92FF92F3
:100540000F931F93CF93DF9300D0CDB7DEB78C010D
:1005500049832A83660F771FF801EA5AFF4FE0802C
:10056000F180EE0CFF1CF801CF01801B910B8E1562
:100570009F0514F41192F8CF8981F801E60FF71F57
:1005800081838A818083480184E5880E911C60E024
:10059000F40180810E9497012801F2E54F0E511C61
:1005A000380180E5680E711C1E141F043CF5E1E063
:1005B000EE1AF108F801EE0DFF1DA080F201308067
:1005C000F301208087E0C82ED12CB12CB5010C2C72
:1005D00002C0759567950A94E2F76170822D0E94BA
:1005E000970161E0832D0E94970160E0832D0E94B6
:1005F0009701F1E0CF1AD10848F7D6CF61E0F401B6
:1006000080810F900F90DF91CF911F910F91FF90FC
:10061000EF90DF90CF90BF90AF909F908F907F90A2
:100620006F905F904F903F902F900C949701DF92C6
:10063000EF92FF920F931F93CF93DF9377FD23C029
:10064000FC01EA5AFF4F2081318162177307DCF405
:10065000EB017C018B0183E0000F111F8A95E1F70C
:10066000005F1F4F0E0D1F1DDD24D394F801119262
:100670008F0120E04D2DBE01C7010E949202D3944C
:10068000F9E0DF12F3CFDF91CF911F910F91FF902F
:10069000EF90DF9008950E94490A1F920F920FB6C3
:1006A0000F9211242F933F934F935F936F937F93F8
:1006B0008F939F93AF93BF93EF93FF9381E291E06A
:1006C0000E94FC00FF91EF91BF91AF919F918F919C
:1006D0007F916F915F914F913F912F910F900FBE3E
:1006E0000F901F9018951F920F920FB60F92112422
:1006F0002F938F939F93EF93FF93E0913101F091AC
:1007000032018081E0913701F091380182FD12C001
:10071000908180913A018F5F8F7320913B01821706
:1007200051F0E0913A01F0E0EF5DFE4F958F80933C
:100730003A0101C08081FF91EF919F918F912F919C
:100740000F900FBE0F901F9018951F920F920FB62B
:100750000F9211242F933F938F939F93AF93BF9347
:1007600080911D0190911E01A0911F01B091200167
:1007700030911C0123E0230F2D3720F40196A11D99
:10078000B11D05C026E8230F0296A11DB11D2093BF
:100790001C0180931D0190931E01A0931F01B09333
:1007A00020018091180190911901A0911A01B09136
:1007B0001B010196A11DB11D809318019093190191
:1007C000A0931A01B0931B01BF91AF919F918F919C
:1007D0003F912F910F900FBE0F901F901895EF92A1
:1007E000FF920F931F93CF93DF93109224011092E7
:1007F000230188EE93E0A0E0B0E080932501909380
:100800002601A0932701B09328018AE091E09093FC
:1008100022018093210185EC90E090932E0180933A
:100820002D0184EC90E09093300180932F0180ECB7
:1008300090E0909332018093310181EC90E09093AD
:1008400034018093330182EC90E0909336018093E1
:10085000350186EC90E09093380180933701109237
:100860003A0110923B0110923C0110923D0110920E
:10087000C2011092C10180E490E00E942809FC01AD
:100880009093C4018093C30184E080838183828339
:10089000838382E090E02FEFE091C301F091C401E7
:1008A000E80FF91F2083019680349105A9F7109273
:1008B000C6011092C50187E090E09093C801809333
:1008C000C701CCE0D0E0D0931C02C0931B028BE0A8
:1008D00090E090931E0280931D028AE090E0909336
:1008E000200280931F0288E090E090932202809380
:1008F000210261E08CE00E94E40161E080911D0230
:100900000E94E40161E080911F020E94E40161E025
:1009100080911F020E949701D0931C02C0931B027A
:10092000EBEDF1E08BE192E011928E179F07E1F77A
:10093000C0E0D0E08091210290912202C817D9072F
:10094000ACF520E04FE0BE018BEC91E00E949202FA
:10095000D7FD0EC08091210290912202C817D907BD
:100960003CF427E04BE0BE018BEC91E00E94920248
:1009700020E049E0BE018BEC91E00E949202BE01B2
:100980008BEC91E00E941703D7FD0EC080912102ED
:1009900090912202C817D9073CF420E04CE0BE0138
:1009A0008BEC91E00E9492022196C4CF6091C50128
:1009B0007091C60177FD09C06817790734F421E00A
:1009C0004CE08BEC91E00E9492026091C501709125
:1009D000C60177FD0DC08091210290912202681717
:1009E000790734F42FE04AE08BEC91E00E94920208
:1009F00000EC11E06091C5017091C6018BEC91E0B3
:100A00000E9417031093240200932302EE24E39420
:100A1000F12CF0922F02E0922E021092250280E13A
:100A200090E00E942809EC0180E092E0998388839D
:100A300082E090E09B838A831D821C82FF82EE828B
:100A4000D0933102C09330020E94280928E7FC01AC
:100A5000208329E72183909333028093320280E040
:100A600090E0A0E0BFE388879987AA87BB8780E0F2
:100A700090E0A6E9B3E48C879D87AE87BF8710938B
:100A8000BF010093BE01DF91CF911F910F91FF90A5
:100A9000EF900895CF93DF93CDB7DEB7CD54D10952
:100AA0000FB6F894DEBF0FBECDBF789484B58260D8
:100AB00084BD84B5816084BD85B5826085BD85B502
:100AC000816085BD80916E00816080936E00109280
:100AD00081008091810082608093810080918100FB
:100AE000816080938100809180008160809380008C
:100AF0008091B10084608093B1008091B0008160EA
:100B00008093B00080917A00846080937A00809115
:100B10007A00826080937A0080917A00816080936D
:100B20007A0080917A00806880937A001092C100E8
:100B300010923402E0913002F091310260E0828143
:100B40000E94E401E0913002F091310261E0828183
:100B50000E9497012FB7F89460911D0170911E01BA
:100B600080911F01909120012FBF0E94FE0760938A
:100B700026027093270280932802909329021092F4
:100B80002A0210922B0210922C0210922D02E09158
:100B90003101F091320182E08083E0912D01F091EA
:100BA0002E011082E0912F01F09130018FEC8083B3
:100BB00010923901E0913501F091360186E0808391
:100BC000E0913301F0913401808180618083E09174
:100BD0003301F0913401808188608083E09133019A
:100BE000F0913401808180688083E0913301F0913D
:100BF000340180818F7D80831E0121E4220E311C0F
:100C000031E03093340280913402882309F481C1A9
:100C10002FB7F89460911D0170911E0180911F0102
:100C2000909120012FBF0E94FE0726966CAF7DAFEA
:100C30008EAF9FAF269720912602309127024091D8
:100C40002802509129020E948C0760932A02709317
:100C50002B0280932C0290932D0200913002109170
:100C60003102D8011C962D913D914D915C911F97B9
:100C70000E94B00887FD08C1809125028823A1F059
:100C800081E291E00E94E60000912302109124028B
:100C9000D8011396ED91FC91149741816081C801B0
:100CA0000E943702C801E0C0F80184810E9420023E
:100CB0008C01E0913002F091310286810E94200285
:100CC0002E969FAF8EAF2E97209123023091240253
:100CD00028963FAF2EAF2897D901BC912296BFAF7F
:100CE0002297B80180E090E00E94FE074B015C0172
:100CF0000091300210913102F8016081718180E031
:100D000090E00E94FE076B017C01D80118964D907F
:100D10005D906D907C901B9720E030E040E85FE3B1
:100D2000C301B2010E948D07A70196010E94B50878
:100D30002C966CAF7DAF8EAF9FAF2C979B01AC0113
:100D4000C501B4010E94B00887FD11C02296BFAD55
:100D50002297B73541F100912E0210912F02119583
:100D600001951109E7E52296EFAF22971EC0A30176
:100D70009201C701B6010E94B5089B01AC01C501F3
:100D8000B4010E94F907181674F02296FFAD22975D
:100D9000F53449F000912E0210912F0225E422969D
:100DA0002FAF229702C000E010E02E96AEADBFAD8F
:100DB0002E97BD0180E090E00E94FE074B015C0190
:100DC0009B01AC012C966CAD7DAD8EAD9FAD2C978B
:100DD0000E94F90718168CF02296BFAD2297B33502
:100DE00041F140912E0250912F02519541955109A8
:100DF000E3E52296EFAF22971EC0A3019201C7013F
:100E0000B6010E94B5089B01AC01C501B4010E9466
:100E1000F907181674F02296FFAD2297FE3449F0B8
:100E200040912E0250912F022EE422962FAF22974E
:100E300002C040E050E02296EFAD22972896AEAD7A
:100E4000BFAD2897EC93E0902302F0902402D701E5
:100E50001396ED91FC9114978181480F6081600F8A
:100E6000C7010E943702C7010E94830226968CADFB
:100E70009DADAEADBFAD269780932602909327021D
:100E8000A0932802B0932902E090C501F090C6011A
:100E9000B7018BEC91E00E941703670183E0CC0C53
:100EA000DD1C8A95E1F78E010F5F1F4FD8014C9131
:100EB0004F3F09F4A8CEF7FC26C080912102909103
:100EC0002202E816F906FCF44830E8F411968C91F9
:100ED000282F30E028303105B4F4F601E40FF11D7D
:100EE00020E830E002C0359527958A95E2F7C901E0
:100EF000E054FE4F238D282B238F4F5FB7018BECDF
:100F000091E00E9492020E5F1F4F0215130571F6C9
:100F10007ACE0E948D0174CE5058BB27AA270E941A
:100F2000A4070C9476080E94680838F00E946F08A5
:100F300020F039F49F3F19F426F40C9465080EF460
:100F4000E095E7FB0C945F08E92F0E94870858F3AF
:100F5000BA17620773078407950720F079F4A6F59E
:100F60000C94A9080EF4E0950B2EBA2FA02D0B01BE
:100F7000B90190010C01CA01A0011124FF27591BDE
:100F800099F0593F50F4503E68F11A16F040A22FE4
:100F9000232F342F4427585FF3CF46953795279555
:100FA000A795F0405395C9F77EF41F16BA0B620B54
:100FB000730B840BBAF09150A1F0FF0FBB1F661F9B
:100FC000771F881FC2F70EC0BA0F621F731F841FDE
:100FD00048F4879577956795B795F7959E3F08F004
:100FE000B0CF9395880F08F09927EE0F97958795C6
:100FF00008950E943B0808F481E00895E89409C030
:1010000097FB3EF490958095709561957F4F8F4F3B
:101010009F4F9923A9F0F92F96E9BB279395F69551
:10102000879577956795B795F111F8CFFAF4BB0FCF
:1010300011F460FF1BC06F5F7F4F8F4F9F4F16C033
:10104000882311F096E911C0772321F09EE8872FBD
:10105000762F05C0662371F096E8862F70E060E079
:101060002AF09A95660F771F881FDAF7880F9695F2
:10107000879597F90895990F0008550FAA0BE0E896
:10108000FEEF16161706E807F907C0F0121613064A
:10109000E407F50798F0621B730B840B950B39F48A
:1010A0000A2661F0232B242B252B21F408950A26F0
:1010B00009F4A140A6958FEF811D811D089597F930
:1010C0009F6780E870E060E008959FEF80EC0895EE
:1010D00000240A9416161706180609060895002417
:1010E0000A9412161306140605060895092E039491
:1010F000000C11F4882352F0BB0F40F4BF2B11F405
:1011000060FF04C06F5F7F4F8F4F9F4F089557FD63
:101110009058440F551F59F05F3F71F04795880F65
:1011200097FB991F61F09F3F79F0879508951216FC
:1011300013061406551FF2CF4695F1DF08C01616A8
:1011400017061806991FF1CF869571056105089459
:101150000895E894BB2766277727CB0197F9089570
:101160000E943B0808F48FEF08950E94C8080C9471
:1011700076080E94680838F00E946F0820F09523D6
:1011800011F00C945F080C94650811240C94AA08C3
:101190000E94870870F3959FC1F3950F50E0551F8B
:1011A000629FF001729FBB27F00DB11D639FAA27BC
:1011B000F00DB11DAA1F649F6627B00DA11D661F0B
:1011C000829F2227B00DA11D621F739FB00DA11D2C
:1011D000621F839FA00D611D221F749F3327A00DE6
:1011E000611D231F849F600D211D822F762F6A2F82
:1011F00011249F5750409AF0F1F088234AF0EE0FE7
:10120000FF1FBB1F661F771F881F91505040A9F713
:101210009E3F510580F00C945F080C94AA085F3F34
:10122000E4F3983ED4F3869577956795B795F7954F
:10123000E7959F5FC1F7FE2B880F911D96958795C7
:1012400097F90895EE0FFF1F0590F491E02D099492
:101250000F931F93CF93DF938230910510F482E0B8
:1012600090E0E0913702F091380220E030E0A0E019
:10127000B0E0309719F14081518102811381481704
:101280005907C8F08417950769F4109731F0129642
:101290000C93129713961C9327C000933702109358
:1012A000380222C02115310519F04217530718F4EE
:1012B0009A01BD01EF01DF01F801DBCF21153105F6
:1012C000F9F0281B390B2430310580F48A819B8189
:1012D0006115710521F0FB019383828304C0909313
:1012E000380280933702FE01329644C0FE01E20FBD
:1012F000F31F8193919322503109398328833AC097
:101300002091350230913602232B41F420910201C5
:101310003091030130933602209335022091000171
:10132000309101012115310541F42DB73EB74091AF
:10133000040150910501241B350BE0913502F09119
:101340003602E217F307A0F42E1B3F0B28173907CC
:1013500078F0AC014E5F5F4F2417350748F04E0F11
:101360005F1F50933602409335028193919302C0E0
:10137000E0E0F0E0CF01DF91CF911F910F91089550
:10138000CF93DF93009709F481C0FC013297138259
:101390001282A0913702B0913802109781F4208117
:1013A0003181820F931F2091350230913602281728
:1013B000390751F5F0933602E093350267C0ED012D
:1013C00020E030E0CE17DF0740F44A815B819E01C8
:1013D00041155105F1F0EA01F5CFD383C283408175
:1013E0005181840F951FC817D90759F488819981B5
:1013F000840F951F0296918380838A819B819383BA
:1014000082832115310529F4F0933802E0933702E5
:101410003DC0E901FB83EA8349915991C40FD51F6F
:10142000EC17FD0761F480819181840F951F02966E
:10143000E90199838883828193819B838A83E0E099
:10144000F0E012968D919C911397009719F0FD0191
:10145000DC01F7CF8D919C9111979D012E5F3F4F3D
:10146000820F931F209135023091360228173907D9
:1014700069F4309729F4109238021092370202C0B2
:1014800013821282B0933602A0933502DF91CF917E
:10149000089581E090E0F8940C944E0AF894FFCF00
:1014A000000039028000000000001E018700B50026
:0814B0006B01E600C400D80046
:107E0000112484B714BE81FFF0D085E080938100F7
:107E100082E08093C00088E18093C10086E0809377
:107E2000C20080E18093C4008EE0C9D0259A86E02C
:107E300020E33CEF91E0309385002093840096BBD3
:107E4000B09BFECF1D9AA8958150A9F7CC24DD24C4
:107E500088248394B5E0AB2EA1E19A2EF3E0BF2EE7
:107E6000A2D0813461F49FD0082FAFD0023811F036
:107E7000013811F484E001C083E08DD089C08234E0
:107E800011F484E103C0853419F485E0A6D080C0E4
:107E9000853579F488D0E82EFF2485D0082F10E0AE
:107EA000102F00270E291F29000F111F8ED06801E7
:107EB0006FC0863521F484E090D080E0DECF843638
:107EC00009F040C070D06FD0082F6DD080E0C81688
:107ED00080E7D80618F4F601B7BEE895C0E0D1E017
:107EE00062D089930C17E1F7F0E0CF16F0E7DF06D8
:107EF00018F0F601B7BEE89568D007B600FCFDCFD4
:107F0000A601A0E0B1E02C9130E011968C91119780
:107F100090E0982F8827822B932B1296FA010C0160
:107F200087BEE89511244E5F5F4FF1E0A038BF0790
:107F300051F7F601A7BEE89507B600FCFDCF97BE46
:107F4000E89526C08437B1F42ED02DD0F82E2BD052
:107F50003CD0F601EF2C8F010F5F1F4F84911BD097
:107F6000EA94F801C1F70894C11CD11CFA94CF0C13
:107F7000D11C0EC0853739F428D08EE10CD085E9AC
:107F80000AD08FE07ACF813511F488E018D01DD067
:107F900080E101D065CF982F8091C00085FFFCCF94
:107FA0009093C60008958091C00087FFFCCF809118
:107FB000C00084FD01C0A8958091C6000895E0E648
:107FC000F0E098E1908380830895EDDF803219F02E
:107FD00088E0F5DFFFCF84E1DECF1F93182FE3DFCA
:107FE0001150E9F7F2DF1F91089580E0E8DFEE27F6
:047FF000FF270994CA
:027FFE00040479
:0400000300007E007B
:00000001FF