:100000000C945D000C9485000C9485000C94850084
:100010000C9485000C9485000C9485000C9485004C
:100020000C9485000C9485000C9485000C9485003C
:100030000C9485000C9485000C9485000C9485002C
:100040000C948D010C9485000C9485000C94850013
:100050000C9485000C9485000C9485000C9485000C
:100060000C9485000C94850000000008000201003B
:100070000003040700000000000000000000000072
:10008000250028002B0000000000240027002A0083
:10009000040404040404040402020202020203032E
:1000A0000303030301020408102040800102040836
:1000B0001020010204081020BA0211241FBECFEF45
:1000C000D8E0DEBFCDBF21E0A6E0B1E001C01D92C7
:1000D000A238B207E1F711E0A0E0B1E0E0ECFBE00C
:1000E00002C005900D92A630B107D9F710E0CDE51A
:1000F000D0E004C02197FE010E94B704CC35D1079F
:10010000C9F70E94F6010C94DE050C94000090E003
:10011000FC01E859FF4F2491FC01EC55FF4F34914D
:10012000FC01E057FF4FE491EE2309F43CC0222389
:1001300039F1233091F038F42130A9F0223001F563
:1001400084B58F7D12C0273091F02830A1F0243083
:10015000B9F4809180008F7D03C0809180008F77FB
:10016000809380000DC084B58F7784BD09C08091D5
:10017000B0008F7703C08091B0008F7D8093B00076
:10018000F0E0EE0FFF1FE458FF4FA591B4919FB729
:10019000F894611104C08C913095382302C0EC9121
:1001A0003E2B3C939FBF08952F923F924F925F92B8
:1001B0006F927F928F929F92AF92BF92CF92DF9277
:1001C000EF92FF920F931F93CF93DF9300D0CDB7A1
:1001D000DEB78C0149832A83660F771FF801EA5A3C
:1001E000FF4FE080F180EE0CFF1CF801CF01801B77
:1001F000910B8E159F0514F41192F8CF8981F801A7
:10020000E60FF71F81838A818083480184E5880E89
:10021000911C60E0F40180810E9487002801F2E5D2
:100220004F0E511C380180E5680E711C1E141F040E
:100230003CF5E1E0EE1AF108F801EE0DFF1DA0809B
:10024000F2013080F301208087E0C82ED12CB12C40
:10025000B5010C2C02C0759567950A94E2F76170A0
:10026000822D0E94870061E0832D0E94870060E05C
:10027000832D0E948700F1E0CF1AD10848F7D6CF2E
:1002800061E0F40180810F900F90DF91CF911F9179
:100290000F91FF90EF90DF90CF90BF90AF909F9025
:1002A0008F907F906F905F904F903F902F900C9425
:1002B0008700DF92EF92FF920F931F93CF93DF930C
:1002C00077FD23C0FC01EA5AFF4F2081318162177C
:1002D0007307DCF4EB017C018B0183E0000F111F3D
:1002E0008A95E1F7005F1F4F0E0D1F1DDD24D3948B
:1002F000F80111928F0120E04D2DBE01C7010E942F
:10030000D400D394F9E0DF12F3CFDF91CF911F91A6
:100310000F91FF90EF90DF9008951F920F920FB60C
:100320000F9211242F933F938F939F93AF93BF937B
:1003300080910B0190910C01A0910D01B0910E01E3
:1003400030910A0123E0230F2D3720F40196A11DDF
:10035000B11D05C026E8230F0296A11DB11D2093F3
:100360000A0180930B0190930C01A0930D01B093AF
:100370000E018091060190910701A0910801B091B2
:1003800009010196A11DB11D8093060190930701FB
:10039000A0930801B0930901BF91AF919F918F91F4
:1003A0003F912F910F900FBE0F901F90189590E0E6
:1003B000FC01EC55FF4F2491FC01E057FF4F849165
:1003C000882399F090E0880F991FFC01EA57FF4FAE
:1003D000A591B491FC01E458FF4F859194918FB79A
:1003E000F894EC91E22BEC938FBF0895789484B548
:1003F000826084BD84B5816084BD85B5826085BD21
:1004000085B5816085BD80916E00816080936E00AE
:1004100010928100809181008260809381008091A0
:100420008100816080938100809180008160809351
:1004300080008091B10084608093B1008091B00011
:1004400081608093B00080917A00846080937A000C
:1004500080917A00826080937A0080917A00816036
:1004600080937A0080917A00806880937A0010925D
:10047000C100C0E8D0E000E010E0BB24B394B0922B
:100480007D0180917D0181116EC02FB7F89460913C
:100490000B0170910C0180910D0190910E012FBF05
:1004A0000E9400046B017C016093710170937201E2
:1004B00080937301909374019B01AC01609175016D
:1004C0007091760180917701909178010E94930359
:1004D0006093790170937A0180937B0190937C0102
:1004E00020E030E040E05FE30E948E04181644F400
:1004F000C0927501D0927601E0927701F092780176
:1005000060E070E087E191E00E94590180916D0107
:1005100090916E01181619060CF0B3CF40910000AF
:10052000509101004830510508F0ABCF8091020096
:10053000909103008830910508F0A3CF9E0102C07E
:10054000359527958A95E2F7C901FA01E15FFE4FDB
:10055000208D282B208F4F5F60E070E087E191E0D5
:100560000E94D4008ECF0115110509F488CF0E9496
:10057000000085CFCF93DF931092100110920F01EE
:10058000109212011092110184E090E00E94BD04CB
:1005900024E030E0FC013183208333832283909375
:1005A000140180931301CCE0D0E0D0936801C09394
:1005B00067018BE090E090936A01809369018AE083
:1005C00090E090936C0180936B0188E090E09093B1
:1005D0006E0180936D018CE00E94D70180916901CA
:1005E0000E94D70180916B010E94D70161E0809148
:1005F0006B010E948700D0936801C0936701E7E216
:10060000F1E087E691E011928E179F07E1F7C0E0D5
:10061000D0E080916D0190916E01C817D907ACF5BB
:1006200020E04FE0BE0187E191E00E94D400D7FDB9
:100630000EC080916D0190916E01C817D9073CF4EE
:1006400027E04BE0BE0187E191E00E94D40020E06A
:1006500049E0BE0187E191E00E94D400BE0187E13C
:1006600091E00E945901D7FD0EC080916D019091DB
:100670006E01C817D9073CF420E04CE0BE0187E1C9
:1006800091E00E94D4002196C4CF1816190644F4B4
:1006900021E04CE060E070E087E191E00E94D4004E
:1006A00080916D0190916E011816190644F428E0AE
:1006B0004AE060E070E087E191E00E94D40060E0F1
:1006C00070E087E191E00E9459018FE091E0909302
:1006D000700180936F012FB7F89460910B017091B6
:1006E0000C0180910D0190910E012FBF0E9400041A
:1006F0006093710170937201809373019093740100
:1007000060937501709376018093770190937801DF
:100710001092790110927A0110927B0110927C0163
:10072000DF91CF9108955058BB27AA270E94AB03B1
:100730000C9454040E94460438F00E944D0420F0AA
:1007400039F49F3F19F426F40C9443040EF4E09519
:10075000E7FB0C943D04E92F0E94650458F3BA1797
:10076000620773078407950720F079F4A6F50C94C7
:1007700087040EF4E0950B2EBA2FA02D0B01B901C2
:1007800090010C01CA01A0011124FF27591B99F007
:10079000593F50F4503E68F11A16F040A22F232F13
:1007A000342F4427585FF3CF469537952795A79563
:1007B000F0405395C9F77EF41F16BA0B620B730B0A
:1007C000840BBAF09150A1F0FF0FBB1F661F771F7B
:1007D000881FC2F70EC0BA0F621F731F841F48F430
:1007E000879577956795B795F7959E3F08F0B0CFB9
:1007F0009395880F08F09927EE0F979587950895A0
:10080000E89409C097FB3EF49095809570956195AA
:100810007F4F8F4F9F4F9923A9F0F92F96E9BB2760
:100820009395F695879577956795B795F111F8CFDC
:10083000FAF4BB0F11F460FF1BC06F5F7F4F8F4F47
:100840009F4F16C0882311F096E911C0772321F03D
:100850009EE8872F762F05C0662371F096E8862FD5
:1008600070E060E02AF09A95660F771F881FDAF72C
:10087000880F9695879597F9089597F99F6780E86F
:1008800070E060E008959FEF80EC089500240A94E2
:100890001616170618060906089500240A9412165B
:1008A0001306140605060895092E0394000C11F48E
:1008B000882352F0BB0F40F4BF2B11F460FF04C03B
:1008C0006F5F7F4F8F4F9F4F089557FD9058440F94
:1008D000551F59F05F3F71F04795880F97FB991F9F
:1008E00061F09F3F79F0879508951216130614065C
:1008F000551FF2CF4695F1DF08C0161617061806E9
:10090000991FF1CF86957105610508940895E894C3
:10091000BB2766277727CB0197F908950E94930498
:1009200008F48FEF0895990F0008550FAA0BE0E81F
:10093000FEEF16161706E807F907C0F012161306A1
:10094000E407F50798F0621B730B840B950B39F4E1
:100950000A2661F0232B242B252B21F408950A2647
:1009600009F4A140A6958FEF811D811D0895EE0F1A
:10097000FF1F0590F491E02D09940F931F93CF93DF
:10098000DF938230910510F482E090E0E0918001E5
:10099000F091810120E030E0A0E0B0E0309719F163
:1009A000408151810281138148175907C8F084178B
:1009B000950769F4109731F012960C9312971396DD
:1009C0001C9327C0009380011093810122C0211540
:1009D000310519F04217530718F49A01BD01EF01D0
:1009E000DF01F801DBCF21153105F9F0281B390BA8
:1009F0002430310580F48A819B816115710521F0D5
:100A0000FB019383828304C09093810180938001D2
:100A1000FE01329644C0FE01E20FF31F81939193D1
:100A200022503109398328833AC020917E013091C8
:100A30007F01232B41F42091020130910301309377
:100A40007F0120937E012091000130910101211549
:100A5000310541F42DB73EB7409104015091050195
:100A6000241B350BE0917E01F0917F01E217F30723
:100A7000A0F42E1B3F0B2817390778F0AC014E5F0E
:100A80005F4F2417350748F04E0F5F1F50937F01CB
:100A900040937E018193919302C0E0E0F0E0CF01AA
:100AA000DF91CF911F910F910895CF93DF9300971E
:100AB00009F481C0FC01329713821282A091800157
:100AC000B0918101109781F420813181820F931FB1
:100AD00020917E0130917F012817390751F5F0935D
:100AE0007F01E0937E0167C0ED0120E030E0CE178A
:100AF000DF0740F44A815B819E0141155105F1F009
:100B0000EA01F5CFD383C28340815181840F951FC1
:100B1000C817D90759F488819981840F951F0296C7
:100B2000918380838A819B81938382832115310500
:100B300029F4F0938101E09380013DC0E901FB833A
:100B4000EA8349915991C40FD51FEC17FD0761F451
:100B500080819181840F951F0296E9019983888392
:100B6000828193819B838A83E0E0F0E012968D91ED
:100B70009C911397009719F0FD01DC01F7CF8D913F
:100B80009C9111979D012E5F3F4F820F931F2091E3
:100B90007E0130917F012817390769F4309729F4D5
:100BA000109281011092800102C013821282B093D0
:100BB0007F01A0937E01DF91CF910895F894FFCF3C
:060BC0000000820180002C
:107E0000112484B714BE81FFF0D085E080938100F7
:107E100082E08093C00088E18093C10086E0809377
:107E2000C20080E18093C4008EE0C9D0259A86E02C
:107E300020E33CEF91E0309385002093840096BBD3
:107E4000B09BFECF1D9AA8958150A9F7CC24DD24C4
:107E500088248394B5E0AB2EA1E19A2EF3E0BF2EE7
:107E6000A2D0813461F49FD0082FAFD0023811F036
:107E7000013811F484E001C083E08DD089C08234E0
:107E800011F484E103C0853419F485E0A6D080C0E4
:107E9000853579F488D0E82EFF2485D0082F10E0AE
:107EA000102F00270E291F29000F111F8ED06801E7
:107EB0006FC0863521F484E090D080E0DECF843638
:107EC00009F040C070D06FD0082F6DD080E0C81688
:107ED00080E7D80618F4F601B7BEE895C0E0D1E017
:107EE00062D089930C17E1F7F0E0CF16F0E7DF06D8
:107EF00018F0F601B7BEE89568D007B600FCFDCFD4
:107F0000A601A0E0B1E02C9130E011968C91119780
:107F100090E0982F8827822B932B1296FA010C0160
:107F200087BEE89511244E5F5F4FF1E0A038BF0790
:107F300051F7F601A7BEE89507B600FCFDCF97BE46
:107F4000E89526C08437B1F42ED02DD0F82E2BD052
:107F50003CD0F601EF2C8F010F5F1F4F84911BD097
:107F6000EA94F801C1F70894C11CD11CFA94CF0C13
:107F7000D11C0EC0853739F428D08EE10CD085E9AC
:107F80000AD08FE07ACF813511F488E018D01DD067
:107F900080E101D065CF982F8091C00085FFFCCF94
:107FA0009093C60008958091C00087FFFCCF809118
:107FB000C00084FD01C0A8958091C6000895E0E648
:107FC000F0E098E1908380830895EDDF803219F02E
:107FD00088E0F5DFFFCF84E1DECF1F93182FE3DFCA
:107FE0001150E9F7F2DF1F91089580E0E8DFEE27F6
:047FF000FF270994CA
:027FFE00040479
:0400000300007E007B
:00000001FF