:100000000C945D000C9485000C9485000C94850084
:100010000C9485000C9485000C9485000C9485004C
:100020000C9485000C9485000C9485000C9485003C
:100030000C9485000C9485000C9485000C9485002C
:100040000C9445040C9485000C9413040C94ED035B
:100050000C9485000C9485000C9485000C9485000C
:100060000C9485000C9485000000000024002700FB
:100070002A0000000000250028002B0004040404CE
:100080000404040402020202020203030303030342
:10009000010204081020408001020408102001021F
:1000A00004081020000000080002010000030407FB
:1000B00000000000000000008F0411241FBECFEFDD
:1000C000D8E0DEBFCDBF22E0A8E2B1E001C01D92C2
:1000D000AE34B207E1F711E0A0E0B1E0E0EBF8E107
:1000E00002C005900D92A832B107D9F710E0CDE516
:1000F000D0E004C02197FE010E94540ACC35D107FC
:10010000C9F70E94E4050C94560C0C940000CF92A1
:10011000DF92EF92FF920F931F93CF93DF936C01C7
:100120007A018B01C0E0D0E0CE15DF0581F0D80167
:100130006D918D01D601ED91FC910190F081E02D42
:10014000C6010995892B11F02196EECF7E01C701DA
:10015000DF91CF911F910F91FF90EF90DF90CF90A3
:100160000895089580E090E00895FC01538D448D3A
:10017000252F30E0842F90E0821B930B541710F052
:10018000CF96089501970895FC01918D828D98175F
:1001900061F0828DDF01A80FB11D5D968C91928D6B
:1001A0009F5F9F73928F90E008958FEF9FEF089568
:1001B000FC01918D828D981731F0828DE80FF11D31
:1001C000858D90E008958FEF9FEF0895FC01918D4C
:1001D000228D892F90E0805C9F4F821B91098F7345
:1001E0009927089581E391E00E94E60021E0892BA0
:1001F00009F420E0822F0895FC01848DDF01A80F0F
:10020000B11DA35ABF4F2C91848D90E001968F733E
:100210009927848FA689B7892C93A089B1898C915D
:10022000837080648C93938D848D981306C00288AC
:10023000F389E02D80818F7D80830895EF92FF9276
:100240000F931F93CF93DF93EC0181E0888F9B8DF9
:100250008C8D981305C0E889F989808185FD26C0B9
:10026000F62E0B8D10E00F5F1F4F0F731127E02E3E
:100270008C8DE8120CC00FB607FCFACFE889F9891B
:10028000808185FFF5CFCE010E94FC00F1CF8B8DE0
:10029000FE01E80FF11DE35AFF4FF0829FB7F8947B
:1002A0000B8FEA89FB89808180620AC09FB7F8942E
:1002B000EE89FF896083E889F98980818370806491
:1002C00080839FBF81E090E0DF91CF911F910F91DC
:1002D000FF90EF900895CF93DF93EC01888D8823F2
:1002E000C9F0EA89FB89808185FD05C0A889B989A3
:1002F0008C9186FD0FC00FB607FCF5CF808185FF7E
:10030000F2CFA889B9898C9185FFEDCFCE010E94EB
:10031000FC00E7CFDF91CF91089580E090E0892B3A
:1003200029F00E94F20081110C940000089590E0E1
:10033000FC01EC55FF4F2491FC01E057FF4F349135
:10034000FC01E458FF4FE491EE2309F43CC0222362
:1003500039F1233091F038F42130A9F0223001F541
:1003600084B58F7D12C0273091F02830A1F0243061
:10037000B9F4809180008F7D03C0809180008F77D9
:10038000809380000DC084B58F7784BD09C08091B3
:10039000B0008F7703C08091B0008F7D8093B00054
:1003A000F0E0EE0FFF1FEE58FF4FA591B4919FB7FD
:1003B000F894611104C08C913095382302C0EC91FF
:1003C0003E2B3C939FBF0895CF93DF9390E0FC01B9
:1003D000E057FF4F2491FC01E458FF4F849188239C
:1003E00061F190E0880F991FFC01E859FF4FC5911A
:1003F000D491FC01EE58FF4FA591B491611109C051
:100400009FB7F8948881209582238883EC912E23CE
:100410000BC0623061F49FB7F8948881322F309519
:1004200083238883EC912E2B2C939FBF06C08FB71C
:10043000F894E8812E2B28838FBFDF91CF91089508
:100440008E3008F08E508770806480937C0080919D
:100450007A00806480937A0080917A0086FDFCCFD8
:10046000809178002091790090E0922B0895DC0132
:100470001896ED91FC911997408151812281338129
:100480008D919C918417950724F057FF04C0AC010F
:1004900002C040E050E08217930724F037FF04C009
:1004A0009C0102C020E030E05183408333832283EB
:1004B00008952F923F924F925F926F927F928F9208
:1004C0009F92AF92BF92CF92DF92EF92FF920F93E3
:1004D0001F93CF93DF9300D0CDB7DEB78C01498354
:1004E0002A83660F771FF801EA5AFF4FE080F180F8
:1004F000EE0CFF1CF801CF01801B910B8E159F05A0
:1005000014F41192F8CF8981F801E60FF71F818367
:100510008A818083480184E5880E911C60E0F401A3
:1005200080810E9497012801F2E54F0E511C38018D
:1005300080E5680E711C1E141F043CF5E1E0EE1A04
:10054000F108F801EE0DFF1DA080F2013080F301EB
:10055000208087E0C82ED12CB12CB5010C2C02C014
:10056000759567950A94E2F76170822D0E94970154
:1005700061E0832D0E94970160E0832D0E94970126
:10058000F1E0CF1AD10848F7D6CF61E0F4018081BD
:100590000F900F90DF91CF911F910F91FF90EF90EF
:1005A000DF90CF90BF90AF909F908F907F906F9093
:1005B0005F904F903F902F900C949701DF92EF92B5
:1005C000FF920F931F93CF93DF9377FD23C0FC011E
:1005D000EA5AFF4F2081318162177307DCF4EB0187
:1005E0007C018B0183E0000F111F8A95E1F7005F0A
:1005F0001F4F0E0D1F1DDD24D394F80111928F01A2
:1006000020E04D2DBE01C7010E945902D394F9E0AC
:10061000DF12F3CFDF91CF911F910F91FF90EF90F9
:10062000DF9008950E94410C0F931F93CF93DF93A7
:10063000EC0188819981009729F02A813B81261756
:10064000370788F48B016F5F7F4F0E947B0B009709
:1006500061F0998388831B830A832C813D81232B3E
:1006600011F4FC01108281E001C080E0DF91CF91A4
:100670001F910F910895EF92FF920F931F93CF93C5
:10068000DF936115710511F480E01CC0411551051F
:10069000C1F07B01EC018C819D818A01080F191F3B
:1006A000B801CE010E941403882371F32881398197
:1006B0008C819D81B701820F931F0E944F0C1D8377
:1006C0000C8381E0DF91CF911F910F91FF90EF900C
:1006D0000895CF93DF93EC0188819981009711F001
:1006E0000E94F20A198218821D821C821B821A82C1
:1006F000DF91CF910895CF93DF93EC0161157105E0
:1007000061F0FB0101900020E9F73197AF01461B32
:10071000570B0E943B03811103C0CE010E94690365
:10072000CE01DF91CF910895EF92FF920F931F9327
:10073000CF93DF93EC017B018A01BA010E9414037D
:10074000811104C0CE010E94690307C01D830C8380
:10075000B701888199810E944F0CCE01DF91CF9122
:100760001F910F91FF90EF900895EF92FF920F93DA
:100770001F93CF93DF93CDB7DEB762970FB6F89490
:10078000DEBF0FBECDBF8C01CB01F80111821082FC
:1007900013821282158214824AE09E012F5F3F4F1E
:1007A0007901B9010E945208F70101900020E9F790
:1007B0003197AF014E195F09B701C8010E94940338
:1007C00062960FB6F894DEBF0FBECDBFDF91CF911A
:1007D0001F910F91FF90EF9008951F920F920FB607
:1007E0000F9211242F933F934F935F936F937F93B7
:1007F0008F939F93AF93BF93EF93FF9381E391E028
:100800000E94FC00FF91EF91BF91AF919F918F915A
:100810007F916F915F914F913F912F910F900FBEFC
:100820000F901F9018951F920F920FB60F921124E0
:100830002F938F939F93EF93FF93E0914101F0915A
:1008400042018081E0914701F091480182FD12C090
:10085000908180914A018F5F8F7320914B018217A5
:1008600051F0E0914A01F0E0EF5CFE4F958F8093EC
:100870004A0101C08081FF91EF919F918F912F914B
:100880000F900FBE0F901F9018951F920F920FB6EA
:100890000F9211242F933F938F939F93AF93BF9306
:1008A00080912D0190912E01A0912F01B0913001E6
:1008B00030912C0123E0230F2D3720F40196A11D48
:1008C000B11D05C026E8230F0296A11DB11D20937E
:1008D0002C0180932D0190932E01A0932F01B093B2
:1008E00030018091280190912901A0912A01B091B5
:1008F0002B010196A11DB11D809328019093290120
:10090000A0932A01B0932B01BF91AF919F918F913A
:100910003F912F910F900FBE0F901F901895EF925F
:10092000FF920F931F93CF93DF9310923401109295
:10093000330188EE93E0A0E0B0E08093350190931E
:100940003601A0933701B09338018AE091E090938B
:1009500032018093310185EC90E090933E018093C9
:100960003D0184EC90E09093400180933F0180EC46
:1009700090E0909342018093410181EC90E090934C
:1009800044018093430182EC90E090934601809370
:10099000450186EC90E090934801809347011092C6
:1009A0004A0110924B0110924C0110924D0108E047
:1009B00010E01093D1010093D0011092D301109256
:1009C000D2011092D5011092D40184E090E00E94EF
:1009D0005A0A24E030E0FC013183208333832283F0
:1009E0009093D9018093D8011092DB011092DA0123
:1009F00087E090E09093DD018093DC01CCE0D0E0D3
:100A0000D0933102C09330028BE090E09093330298
:100A1000809332028AE090E0909335028093340212
:100A2000109337020093360261E08CE00E94E401EB
:100A300061E0809132020E94E40161E08091340221
:100A40000E94E40161E0809134020E949701D093FA
:100A50003102C0933002E0EFF1E0119282E0E03326
:100A6000F807D9F7C0E0D0E08091360290913702C4
:100A7000C817D907ACF520E04FE0BE0180EE91E049
:100A80000E945902D7FD0EC0809136029091370224
:100A9000C817D9073CF427E04BE0BE0180EE91E097
:100AA0000E94590220E049E0BE0180EE91E00E94E0
:100AB0005902BE0180EE91E00E94DE02D7FD0EC019
:100AC0008091360290913702C817D9073CF420E094
:100AD0004CE0BE0180EE91E00E9459022196C4CF05
:100AE0006091DA017091DB0177FD09C06817790721
:100AF00034F421E04CE080EE91E00E9459026091D4
:100B0000DA017091DB0177FD0DC080913602909182
:100B100037026817790734F42FE04AE080EE91E05D
:100B20000E94590200ED11E06091DA017091DB0141
:100B300080EE91E00E94DE021093390200933802A9
:100B4000EE24E394F12CF0924402E09243021092DE
:100B50003A0280E190E00E945A0AEC0180E092E0C3
:100B60009983888382E090E09B838A831D821C8224
:100B7000FF82EE82D0934602C09345020E945A0A39
:100B800028E7FC01208329E7218390934802809382
:100B9000470280E090E0A0E0BFE388879987AA87BA
:100BA000BB8780E090E0A6E9B3E48C879D87AE87A1
:100BB000BF871093CF010093CE01DF91CF911F919A
:100BC0000F91FF90EF900895CF93DF93CDB7DEB7ED
:100BD000A2970FB6F894DEBF0FBECDBF789484B550
:100BE000826084BD84B5816084BD85B5826085BD29
:100BF00085B5816085BD80916E00816080936E00B7
:100C000010928100809181008260809381008091A8
:100C10008100816080938100809180008160809359
:100C200080008091B10084608093B1008091B00019
:100C300081608093B00080917A00846080937A0014
:100C400080917A00826080937A0080917A0081603E
:100C500080937A0080917A00806880937A00109265
:100C6000C10010924902E0914502F091460260E015
:100C700082810E94E401E0914502F091460261E028
:100C800082810E9497012FB7F89460912D01709195
:100C90002E0180912F01909130012FBF0E948C086E
:100CA00060933B0270933C0280933D0290933E021E
:100CB00010923F02109240021092410210924202A2
:100CC0008091DC019091DD019093D1018093D0015E
:100CD000E0914101F091420182E08083E0913D0189
:100CE000F0913E011082E0913F01F09140018FECC4
:100CF000808310924901E0914501F091460186E020
:100D00008083E0914301F091440180818061808380
:100D1000E0914301F0914401808188608083E091FB
:100D20004301F0914401808180688083E091430118
:100D3000F091440180818F7D80831E0123E1220E8A
:100D4000311C31E03093490280914902882309F433
:100D5000A6C12FB7F89460912D0170912E0180915A
:100D60002F01909130012FBF0E948C08698F7A8FDC
:100D70008B8F9C8F20913B0230913C0240913D0231
:100D800050913E020E94E20960933F02709340023C
:100D900080934102909342020091450210914602D5
:100DA000D8011C962D913D914D915C911F970E9409
:100DB0004F0A87FDBCC080913A02882349F081E345
:100DC00091E00E94E6008091380290913902A1C022
:100DD000F80184810E9420028C01E0914502F0918B
:100DE000460286810E9420029AA389A3B80180E06E
:100DF00090E00E948C084B015C010091450210912B
:100E00004602D8016D917C9180E090E00E948C08B0
:100E10006B017C01F801408451846284738420E07A
:100E200030E040E85FE3C301B2010E94E309A7019B
:100E300096010E94ED086D8F7E8F8F8F98A39B0186
:100E4000AC01C501B4010E944F0A87FD08C00091A2
:100E500043021091440211950195110915C0A30197
:100E60009201C701B6010E94ED089B01AC01C501CA
:100E7000B4010E94870818162CF0009143021091CB
:100E8000440202C000E010E029A13AA1B90180E0CB
:100E900090E00E948C084B015C019B01AC016D8DC0
:100EA0007E8D8F8D98A10E948708181644F020919E
:100EB00043023091440231952195310915C0A301B7
:100EC0009201C701B6010E94ED089B01AC01C5016A
:100ED000B4010E94870818162CF02091430230912B
:100EE000440202C020E030E0809138029091390243
:100EF000DC011896ED91FC91199740815181040F06
:100F0000151F1183008342815381240F351F3383C2
:100F100022830E943702898D9A8DAB8DBC8D809380
:100F20003B0290933C02A0933D02B0933E0200919D
:100F3000DA011091DB01E091D801F091D901C08074
:100F4000D180E280F380B80180EE91E00E94DE0261
:100F500017FD2AC0809136029091370208171907B1
:100F60001CF598E0C916D104F8F4A8E0EA16F104DB
:100F7000D8F4F80183E0EE0FFF1F8A95E1F7EC0D3E
:100F8000FD1D80E890E002C095958795EA94E2F710
:100F9000E053FE4F20A1282B20A341E04C0DB801C7
:100FA00080EE91E00E945902E091CE01F091CF01D4
:100FB0000084F185E02D0081118162817381CE0171
:100FC0000D960E94B503B801CE0107960E94B503A5
:100FD0001A8219821C821B821E821D8243E050E00D
:100FE00068E171E0CE0101960E9494034B855C8517
:100FF0006F817885CE0101960E943B03811104C068
:10100000CE0101960E9469036CE171E0CE01019668
:101010000E947B0360E271E00E947B038C0149899E
:101020005A896D857E850E943B03811103C0C801EA
:101030000E9469031C8A1B8A1E8A1D8A188E1F8AB9
:101040000215130559F0F801608171816115710570
:1010500029F044815581C1010E94940389819A81BC
:101060000E94F20A8F8198850E94F20A8D859E85E2
:101070000E94F20A4F89588D6B897C8981E391E047
:101080000E94870042E050E064E271E081E391E079
:101090000E9487008B899C890E94F20A55CE0E948B
:1010A0008D014FCEBB274A3031F4992322F4BDE2A3
:1010B000909581959F4F0C945E08BB27FB015527A7
:1010C000AA27880F991FAA1FA41710F0A41B8395A5
:1010D0005051B9F7A05DAA3308F0A95DA19300971C
:1010E00079F7B111B1931192CB010C947708DC011F
:1010F000FC01672F71917723E1F7329704C07C914F
:101100006D9370836291AE17BF07C8F308950E9474
:10111000C90808F481E00895E89409C097FB3EF4FB
:1011200090958095709561957F4F8F4F9F4F992334
:10113000A9F0F92F96E9BB279395F69587957795B2
:101140006795B795F111F8CFFAF4BB0F11F460FF72
:101150001BC06F5F7F4F8F4F9F4F16C0882311F0CA
:1011600096E911C0772321F09EE8872F762F05C0DE
:10117000662371F096E8862F70E060E02AF09A9579
:10118000660F771F881FDAF7880F9695879597F96E
:101190000895990F0008550FAA0BE0E8FEEF161608
:1011A0001706E807F907C0F012161306E407F5075B
:1011B00098F0621B730B840B950B39F40A2661F0CF
:1011C000232B242B252B21F408950A2609F4A14072
:1011D000A6958FEF811D811D08950E9400090C9432
:1011E00071090E94630938F00E946A0920F0952372
:1011F00011F00C945A090C94600911240C94A5095F
:101200000E94820970F3959FC1F3950F50E0551F1E
:10121000629FF001729FBB27F00DB11D639FAA274B
:10122000F00DB11DAA1F649F6627B00DA11D661F9A
:10123000829F2227B00DA11D621F739FB00DA11DBB
:10124000621F839FA00D611D221F749F3327A00D75
:10125000611D231F849F600D211D822F762F6A2F11
:1012600011249F5750409AF0F1F088234AF0EE0F76
:10127000FF1FBB1F661F771F881F91505040A9F7A3
:101280009E3F510580F00C945A090C94A5095F3FCC
:10129000E4F3983ED4F3869577956795B795F795DF
:1012A000E7959F5FC1F7FE2B880F911D9695879557
:1012B00097F9089597F99F6780E870E060E00895D6
:1012C0009FEF80EC089500240A941616170618065E
:1012D0000906089500240A9412161306140605063A
:1012E0000895092E0394000C11F4882352F0BB0FCB
:1012F00040F4BF2B11F460FF04C06F5F7F4F8F4F2E
:101300009F4F089557FD9058440F551F59F05F3F68
:1013100071F04795880F97FB991F61F09F3F79F017
:1013200087950895121613061406551FF2CF469599
:10133000F1DF08C0161617061806991FF1CF86951B
:101340007105610508940895E894BB2766277727FF
:10135000CB0197F908952F923F924F925F926F922F
:101360007F928F929F92AF92BF92CF92DF92EF9235
:10137000FF920F931F93CF93DF93CDB7DEB7CA1BB6
:10138000DB0B0FB6F894DEBF0FBECDBF09942A88E1
:10139000398848885F846E847D848C849B84AA8489
:1013A000B984C884DF80EE80FD800C811B81AA8116
:1013B000B981CE0FD11D0FB6F894DEBF0FBECDBFE1
:1013C000ED0108955058BB27AA270E94FA090C94F2
:1013D00071090E94630938F00E946A0920F039F40B
:1013E0009F3F19F426F40C9460090EF4E095E7FB96
:1013F0000C945A09E92F0E94820958F3BA17620720
:1014000073078407950720F079F4A6F50C94A409D6
:101410000EF4E0950B2EBA2FA02D0B01B90190010F
:101420000C01CA01A0011124FF27591B99F0593F53
:1014300050F4503E68F11A16F040A22F232F342F9B
:101440004427585FF3CF469537952795A795F040E9
:101450005395C9F77EF41F16BA0B620B730B840BFE
:10146000BAF09150A1F0FF0FBB1F661F771F881FB6
:10147000C2F70EC0BA0F621F731F841F48F487950E
:1014800077956795B795F7959E3F08F0B0CF939500
:10149000880F08F09927EE0F9795879508950E9479
:1014A000C90808F48FEF0895EE0FFF1F0590F4911F
:1014B000E02D09940F931F93CF93DF938230910512
:1014C00010F482E090E0E0914C02F0914D0220E0B7
:1014D00030E0A0E0B0E0309719F140815181028105
:1014E000138148175907C8F08417950769F41097B6
:1014F00031F012960C93129713961C9327C0009309
:101500004C0210934D0222C02115310519F04217EB
:10151000530718F49A01BD01EF01DF01F801DBCF99
:1015200021153105F9F0281B390B2430310580F4E1
:101530008A819B816115710521F0FB019383828370
:1015400004C090934D0280934C02FE01329644C039
:10155000FE01E20FF31F81939193225031093983E9
:1015600028833AC020914A0230914B02232B41F448
:10157000209102013091030130934B0220934A02E3
:1015800020910001309101012115310541F42DB761
:101590003EB74091040150910501241B350BE091A9
:1015A0004A02F0914B02E217F307A0F42E1B3F0B07
:1015B0002817390778F0AC014E5F5F4F24173507C5
:1015C00048F04E0F5F1F50934B0240934A028193A5
:1015D000919302C0E0E0F0E0CF01DF91CF911F9145
:1015E0000F910895CF93DF93009709F481C0FC0118
:1015F000329713821282A0914C02B0914D02109743
:1016000081F420813181820F931F20914A02309111
:101610004B022817390751F5F0934B02E0934A0229
:1016200067C0ED0120E030E0CE17DF0740F44A81CB
:101630005B819E0141155105F1F0EA01F5CFD3839D
:10164000C28340815181840F951FC817D90759F46F
:1016500088819981840F951F0296918380838A8166
:101660009B81938382832115310529F4F0934D02E8
:10167000E0934C023DC0E901FB83EA834991599113
:10168000C40FD51FEC17FD0761F480819181840F91
:10169000951F0296E90199838883828193819B83B8
:1016A0008A83E0E0F0E012968D919C911397009769
:1016B00019F0FD01DC01F7CF8D919C9111979D01EF
:1016C0002E5F3F4F820F931F20914A0230914B02B1
:1016D0002817390769F4309729F410924D021092B7
:1016E0004C0202C013821282B0934B02A0934A02B2
:1016F000DF91CF910895A0E0B0E0E1E8FBE00C9429
:10170000AF09EC01009721F4CB010E945A0AB4C042
:10171000FC01E60FF71F9C0122503109E217F30785
:1017200008F4A8C0D9010D911C911197061717074D
:10173000B0F00530110508F49BC0C8010497861766
:10174000970708F495C002501109061B170B019367
:1017500011936D937C93CF010E94F20A89C05B01C3
:10176000A01AB10A4C01800E911EA0914C02B091BA
:101770004D02612C712CE12CF12C109709F446C01C
:101780008D919C911197A815B905B1F56C0142E0B6
:10179000C40ED11CCA14DB0478F14C018A189B08D2
:1017A000640142E0C40ED11C1296BC9012971396AD
:1017B000AC91B5E0CB16D10440F0B282A383918204
:1017C0008082D9016D937C9309C00E5F1F4F800FFB
:1017D000911FF90191838083EB2DFA2FE114F1041D
:1017E00031F0D7011396FC93EE93129741C0F0931A
:1017F0004D02E0934C023CC06816790608F43C01A7
:101800007D0112960D90BC91A02DB7CF80914A0218
:1018100090914B0288169906E1F466167706C8F493
:101820008091000190910101009741F48DB79EB71E
:101830004091040150910501841B950BE817F907AD
:10184000C8F4F0934B02E0934A02F901718360837C
:101850000FC0CB010E945A0A7C01009759F0A801E1
:10186000BE010E94460CCE010E94F20AC70104C0CC
:10187000CE0102C080E090E0CDB7DEB7EEE00C9480
:10188000CB0981E090E0F8940C94560CFB01DC014C
:1018900002C001900D9241505040D8F70895FB01CD
:1018A000DC0101900D920020E1F70895F894FFCF3C
:1018B00000004E028000000000001E018700B500FD
:1018C0006B01E600C400D800583A2000207C2000BC
:0818D000593A20000D0A000046
:00000001FF
